:100000000C942A000C9447000C9447000C94470071
:100010000C9447000C9447000C9447000C94470044
:100020000C9447000C9447000C9447000C94470034
:100030000C9447000C9447000C9447000C94470024
:100040000C9447000C9447000C9447000C94470014
:100050000C94470011241FBECFE5D8E0DEBFCDBF12
:1000600011E0A0E6B0E0ECEBFAE502C005900D92DD
:10007000A23BB107D9F712E0A2EBB1E001C01D929B
:10008000A531B107E1F70E9477130C945C2D0C9415
:100090000000EF92FF920F931F937B018C0120E0F1
:1000A00030E040E05FE40E94490388238CF0C801FF
:1000B000B70120E030E040E05FE40E94C1010E940F
:1000C000A9039B01AC01205030404040504806C07D
:1000D000C801B7010E94A9039B01AC01B901CA0183
:1000E0001F910F91FF90EF900895A0E0B0E0EBE733
:1000F000F0E00C94F42CDC012B01FA019C9192307D
:1001000008F439C1EB018881823008F433C194309E
:1001100069F4843009F02FC111969C91119789815F
:10012000981709F428C1AAEAB1E025C1843009F47E
:1001300021C18230A9F4923009F01DC19A01AD01AC
:1001400088E0EA010990AE01E90109929E0181501F
:10015000C1F7E201898111969C918923818308C1AD
:10016000923009F407C112962D903C901397EB0141
:100170008A819B811496AD90BD90CD90DC901797AD
:10018000EC80FD800E811F819101281B390BB90184
:1001900037FF04C066277727621B730B6032710537
:1001A0000CF061C0121613066CF537014801062EDB
:1001B00004C096948794779467940A94D2F721E0C8
:1001C00030E040E050E004C0220F331F441F551FB1
:1001D0006A95D2F721503040404050402E213F21B7
:1001E00040235123211531054105510521F021E01E
:1001F00030E040E050E079018A01E628F72808293C
:1002000019293CC0232BD1F1260E371E350146019A
:10021000062E04C096948794779467940A94D2F734
:1002200021E030E040E050E004C0220F331F441FC3
:10023000551F6A95D2F721503040404050402A2146
:100240003B214C215D21211531054105510521F04E
:1002500021E030E040E050E059016A01A628B728CB
:10026000C828D9280BC0821593052CF01C01AA249C
:10027000BB24650103C0EE24FF24870111969C91E5
:10028000D20111968C91981709F445C0992339F041
:10029000A80197012A193B094C095D0906C0A6016E
:1002A00095012E193F09400B510B57FD08C01182D3
:1002B0003382228224833583468357831DC081E0A5
:1002C00081833382228288279927DC01821B930B4A
:1002D000A40BB50B84839583A683B7830DC0220F2F
:1002E000331F441F551F24833583468357838281E0
:1002F000938101979383828324813581468157813D
:10030000DA01C9010197A109B1098F5F9F4FAF4F72
:10031000BF4328F30BC0918333822282EA0CFB1C7B
:100320000C1D1D1DE482F5820683178383E0808304
:10033000248135814681578157FF1AC0C901AA27F8
:1003400097FDA095BA2F81709070A070B0705695EF
:10035000479537952795822B932BA42BB52B848318
:100360009583A683B7838281938101969383828349
:10037000DF0101C0D201CD01CDB7DEB7E2E10C94BF
:10038000102DA0E2B0E0E7ECF1E00C94002D6983C1
:100390007A838B839C832D833E834F835887E9E048
:1003A000EE2EF12CEC0EFD1ECE010196B7010E943F
:1003B000D2048E010F5E1F4FCE010596B8010E9438
:1003C000D2048A8991E089278A8BC701B801AE01DE
:1003D000475E5F4F0E9475000E94FD03A096E6E015
:1003E0000C941C2DA0E2B0E0E8EFF1E00C94002D9D
:1003F00069837A838B839C832D833E834F835887C5
:10040000F9E0EF2EF12CEC0EFD1ECE010196B701A6
:100410000E94D2048E010F5E1F4FCE010596B801D7
:100420000E94D204C701B801AE01475E5F4F0E942F
:1004300075000E94FD03A096E6E00C941C2DA0E23E
:10044000B0E0E5E2F2E00C94F42C69837A838B83CC
:100450009C832D833E834F835887CE010196BE0136
:10046000675F7F4F0E94D204CE010596BE016F5E8A
:100470007F4F0E94D2049985923088F0898982301A
:10048000C8F0943019F4823051F404C0843029F457
:10049000923081F48AEA91E0C6C0923049F420E0BB
:1004A0009A858A89981321E02A87CE010996BBC0D4
:1004B000823049F420E09A858A89981321E02A8BBA
:1004C000CE014196B0C02D843E844F8458886D88FB
:1004D0007E888F88988CEE24FF248701AA24BB2471
:1004E000650140E050E060E070E0E0E0F0E0C10174
:1004F00081709070892BE9F0E60CF71C081D191D1E
:100500009A01AB012A0D3B1D4C1D5D1D80E090E062
:10051000A0E0B0E0E614F7040805190520F481E036
:1005200090E0A0E0B0E0BA01A901480F591F6A1F8E
:100530007B1FAA0CBB1CCC1CDD1C97FE08C081E0F5
:1005400090E0A0E0B0E0A82AB92ACA2ADB2A3196B6
:10055000E032F10549F0660C771C881C991C569412
:10056000479437942794C3CFFA85EA892B893C892D
:100570008B859C85280F391F2E5F3F4F17C0CA01FE
:1005800081709070892B61F016950795F794E79428
:1005900080E090E0A0E0B0E8E82AF92A0A2B1B2BC3
:1005A00076956795579547952F5F3F4F77FDE7CF36
:1005B0000CC0440F551F661F771F17FD4160EE0CDE
:1005C000FF1C001F111F21503040403090E05907A0
:1005D00090E0690790E4790760F32B8F3C8FDB0193
:1005E000CA018F779070A070B07080349105A1051A
:1005F000B10561F447FD0AC0E114F10401051105DC
:1006000029F0405C5F4F6F4F7F4F40781A8EFE1786
:1006100011F081E08A8F4D8F5E8F6F8F78A383E01A
:10062000898FCE0149960E94FD03A096E2E10C94C9
:10063000102DA8E1B0E0EFE1F3E00C94002D698308
:100640007A838B839C832D833E834F83588789E0F5
:10065000E82EF12CEC0EFD1ECE010196B7010E9492
:10066000D2048E010F5E1F4FCE010596B8010E9485
:10067000D2048985823040F08989823028F0C70110
:10068000B8010E944A0501C08FEF6896E6E00C941D
:100690001C2DA8E1B0E0EFE4F3E00C94002D698399
:1006A0007A838B839C832D833E834F83588789E095
:1006B000E82EF12CEC0EFD1ECE010196B7010E9432
:1006C000D2048E010F5E1F4FCE010596B8010E9425
:1006D000D2048985823040F08989823028F0C701B0
:1006E000B8010E944A0501C08FEF6896E6E00C94BD
:1006F0001C2DA8E1B0E0EFE7F3E00C94002D698336
:100700007A838B839C832D833E834F83588789E034
:10071000E82EF12CEC0EFD1ECE010196B7010E94D1
:10072000D2048E010F5E1F4FCE010596B8010E94C4
:10073000D2048985823040F08989823028F0C7014F
:10074000B8010E944A0501C081E06896E6E00C9479
:100750001C2DACE0B0E0EFEAF3E00C94042D6983CB
:100760007A838B839C83CE010196BE016B5F7F4FA2
:100770000E94D2048D81823061F1823050F1843048
:1007800021F48E81882351F12EC02F81388537FDC9
:1007900020C06E812F3131051CF06623F9F023C093
:1007A0008EE190E0821B930B29853A854B855C8511
:1007B00004C056954795379527958A95D2F76623B5
:1007C000B1F050954095309521953F4F4F4F5F4F79
:1007D0000EC020E030E040E050E009C02FEF3FEFD6
:1007E0004FEF5FE704C020E030E040E050E8B9019F
:1007F000CA012C96E2E00C94202DDF92EF92FF923A
:100800000F931F93FC01E480F58006811781D1804E
:100810008081823048F480E090E0A0E1B0E0E82AF6
:10082000F92A0A2B1B2BA5C0843009F49FC0823003
:1008300021F4EE24FF24870105C0E114F104010531
:10084000110519F4E0E0F0E096C0628173819FEF3A
:10085000623879070CF05BC022E83FEF261B370BAC
:100860002A3131052CF020E030E040E050E02AC091
:10087000B801A701022E04C0769567955795479554
:100880000A94D2F781E090E0A0E0B0E004C0880FC5
:10089000991FAA1FBB1F2A95D2F70197A109B10979
:1008A0008E219F21A023B1230097A105B10521F03E
:1008B00081E090E0A0E0B0E09A01AB01282B392B59
:1008C0004A2B5B2BDA01C9018F779070A070B07052
:1008D00080349105A105B10539F427FF09C0205CDA
:1008E0003F4F4F4F5F4F04C0215C3F4F4F4F5F4F13
:1008F000E0E0F0E02030A0E03A07A0E04A07A0E402
:100900005A0710F0E1E0F0E079018A0127C0603871
:10091000710564F5FB01E158FF4FD801C7018F77DE
:100920009070A070B07080349105A105B10539F4C4
:10093000E7FE0DC080E490E0A0E0B0E004C08FE3EB
:1009400090E0A0E0B0E0E80EF91E0A1F1B1F17FFA1
:1009500005C016950795F794E794319687E01695AC
:100960000795F794E7948A95D1F705C0EE24FF2404
:100970008701EFEFF0E06E2F679566276795902F60
:100980009F77D794DD24D7948E2F8695492F462BB9
:10099000582F5D29B701CA011F910F91FF90EF9069
:1009A000DF900895FC01DB01408151812281622F9B
:1009B0006F7770E0221F2227221F9381892F880FD3
:1009C000822B282F30E0991F9927991F11969C930D
:1009D000119721153105A9F54115510561057105DD
:1009E00011F482E037C082E89FEF13969C938E93B8
:1009F00012979A01AB0167E0220F331F441F551F66
:100A00006A95D1F783E08C930DC0220F331F441FEA
:100A1000551F12968D919C911397019713969C9355
:100A20008E931297203080E0380780E0480780E4FA
:100A3000580758F314962D933D934D935C93179755
:100A400008952F3F310579F4411551056105710570
:100A500019F484E08C93089564FF03C081E08C93C3
:100A600012C01C9210C02F57304013963C932E9307
:100A7000129783E08C9387E0440F551F661F771F02
:100A80008A95D1F7706414964D935D936D937C9322
:100A9000179708951F93DC01FB019C91923008F495
:100AA00047C08081823008F443C0943051F41196DD
:100AB0001C91843099F58181682F70E0611B710968
:100AC0003FC0843021F0923031F48230B9F181811D
:100AD000882389F12DC011961C9111978230F1F075
:100AE00081811817D9F412962D913C911397828128
:100AF00093818217930794F028173907BCF0149656
:100B00008D919D910D90BC91A02D248135814681C0
:100B10005781281739074A075B0718F4112341F05A
:100B20000AC082179307A407B50740F4112319F0F0
:100B300061E070E005C06FEF7FEF02C060E070E041
:100B4000CB011F910895DF93CF9300D000D00F9277
:100B5000CDB7DEB789836A834B838A81883008F0FA
:100B6000D5C08981843008F0D1C08981282F30E038
:100B70003D832C838C819D818130910509F443C094
:100B80002C813D81223031052CF48C819D81009790
:100B900071F0BCC02C813D812230310509F45FC069
:100BA0008C819D818330910509F485C0AFC08B8114
:100BB0008130A1F4AAE3B0E0EAE3F0E08081482FBD
:100BC0008A81282F30E081E090E0022E02C0880F59
:100BD000991F0A94E2F7842B8C9398C0AAE3B0E0A3
:100BE000EAE3F0E08081482F8A81282F30E081E01D
:100BF00090E0022E02C0880F991F0A94E2F78095B8
:100C000084238C9383C08B818130A1F4A7E3B0E06F
:100C1000E7E3F0E08081482F8A81282F30E081E0EF
:100C200090E0022E02C0880F991F0A94E2F7842BED
:100C30008C936CC0A7E3B0E0E7E3F0E08081482F3D
:100C40008A81282F30E081E090E0022E02C0880FD8
:100C5000991F0A94E2F7809584238C9357C08B8167
:100C60008130A1F4A4E3B0E0E4E3F0E08081482F18
:100C70008A81282F30E081E090E0022E02C0880FA8
:100C8000991F0A94E2F7842B8C9340C0A4E3B0E050
:100C9000E4E3F0E08081482F8A81282F30E081E072
:100CA00090E0022E02C0880F991F0A94E2F7809507
:100CB00084238C932BC08B818130A1F4A1E3B0E01D
:100CC000E1E3F0E08081482F8A81282F30E081E045
:100CD00090E0022E02C0880F991F0A94E2F7842B3D
:100CE0008C9314C0A1E3B0E0E1E3F0E08081482FF1
:100CF0008A81282F30E081E090E0022E02C0880F28
:100D0000991F0A94E2F7809584238C930F900F909B
:100D10000F900F900F90CF91DF910895DF93CF93B5
:100D200000D000D00F92CDB7DEB789836A834B83A2
:100D30008A81883008F0D5C08981843008F0D1C01C
:100D40008981282F30E03D832C838C819D818130E7
:100D5000910509F443C02C813D81223031052CF4EA
:100D60008C819D81009771F0BCC02C813D81223027
:100D7000310509F45FC08C819D818330910509F4B0
:100D800085C0AFC08B818130A1F4ABE3B0E0EBE371
:100D9000F0E08081482F8A81282F30E081E090E0C8
:100DA000022E02C0880F991F0A94E2F7842B8C93BD
:100DB00098C0ABE3B0E0EBE3F0E08081482F8A819C
:100DC000282F30E081E090E0022E02C0880F991FAA
:100DD0000A94E2F7809584238C9383C08B818130C1
:100DE000A1F4A8E3B0E0E8E3F0E08081482F8A8135
:100DF000282F30E081E090E0022E02C0880F991F7A
:100E00000A94E2F7842B8C936CC0A8E3B0E0E8E38B
:100E1000F0E08081482F8A81282F30E081E090E047
:100E2000022E02C0880F991F0A94E2F7809584234E
:100E30008C9357C08B818130A1F4A5E3B0E0E5E34A
:100E4000F0E08081482F8A81282F30E081E090E017
:100E5000022E02C0880F991F0A94E2F7842B8C930C
:100E600040C0A5E3B0E0E5E3F0E08081482F8A814F
:100E7000282F30E081E090E0022E02C0880F991FF9
:100E80000A94E2F7809584238C932BC08B81813068
:100E9000A1F4A2E3B0E0E2E3F0E08081482F8A8190
:100EA000282F30E081E090E0022E02C0880F991FC9
:100EB0000A94E2F7842B8C9314C0A2E3B0E0E2E33F
:100EC000F0E08081482F8A81282F30E081E090E097
:100ED000022E02C0880F991F0A94E2F7809584239E
:100EE0008C930F900F900F900F900F90CF91DF91F8
:100EF0000895DF93CF9300D000D00F92CDB7DEB727
:100F00008A836B8319828B81883008F084C08A8140
:100F1000843008F080C08A81282F30E03D832C8304
:100F20004C815D814130510579F18C819D81823008
:100F3000910534F42C813D812115310569F06BC098
:100F40004C815D8142305105B9F18C819D818330A6
:100F5000910509F449C05FC0E9E3F0E08081282FE2
:100F600030E08B81882F90E0A90102C0559547950C
:100F70008A95E2F7CA0181709070882319F081E0A8
:100F8000898349C0198247C0E6E3F0E08081282FB9
:100F900030E08B81882F90E0A90102C055954795DC
:100FA0008A95E2F7CA0181709070882319F081E078
:100FB000898331C019822FC0E3E3F0E08081282FBC
:100FC00030E08B81882F90E0A90102C055954795AC
:100FD0008A95E2F7CA0181709070882319F081E048
:100FE000898319C0198217C0E0E3F0E08081282FBF
:100FF00030E08B81882F90E0A90102C0559547957C
:101000008A95E2F7CA0181709070882319F081E017
:10101000898301C0198289810F900F900F900F90E2
:101020000F90CF91DF910895DF93CF9300D000D040
:10103000CDB7DEB789836A838981843090F5898151
:10104000282F30E03C832B838B819C81813091055C
:10105000D1F02B813C81223031052CF48B819C8195
:10106000009761F01EC02B813C812230310581F058
:101070008B819C818330910581F013C0EAE3F0E01D
:101080008A8180830EC0E7E3F0E08A81808309C013
:10109000E4E3F0E08A81808304C0E1E3F0E08A8148
:1010A00080830F900F900F900F90CF91DF91089554
:1010B000DF93CF9300D000D0CDB7DEB789836A83AA
:1010C0008981843090F58981282F30E03C832B83FF
:1010D0008B819C8181309105D1F02B813C81223024
:1010E00031052CF48B819C81009761F01EC02B810F
:1010F0003C812230310581F08B819C8183309105C8
:1011000081F013C0EBE3F0E08A8180830EC0E8E356
:10111000F0E08A81808309C0E5E3F0E08A81808382
:1011200004C0E2E3F0E08A8180830F900F900F907B
:101130000F90CF91DF910895DF93CF9300D000D02F
:10114000CDB7DEB78A8319828A81843090F58A818F
:10115000282F30E03C832B838B819C81813091054B
:10116000D1F02B813C81223031052CF48B819C8184
:10117000009761F01EC02B813C812230310581F047
:101180008B819C818330910581F013C0E9E3F0E00D
:10119000808189830EC0E6E3F0E08081898309C005
:1011A000E3E3F0E08081898304C0E0E3F0E0808144
:1011B000898389810F900F900F900F90CF91DF91CD
:1011C0000895DF93CF9300D00F92CDB7DEB7198289
:1011D0001B8243C082E060E00E9414088B81982F3C
:1011E0009C5F82E0692F41E00E94A3058B81882FDC
:1011F00090E09C012C5F3F4F81E090E002C0880F9F
:10120000991F2A95E2F78095898382E069810E947F
:1012100058081A821CC082E06A810E9479078823DC
:1012200099F48A81882F90E0880F991F880F991F61
:10123000982F8B81890F8F5F0E9432090F900F903A
:101240000F90CF91DF9108958A818F5F8A838A8181
:10125000843008F38B818F5F8B838B81843008F41B
:10126000B9CFB6CFDF93CF9300D000D0CDB7DEB7E4
:101270008A8319828A81282F30E03C832B838B81DB
:101280009C818830910509F470C02B813C81293004
:1012900031055CF58B819C818430910509F459C03E
:1012A0002B813C81253031059CF48B819C818230DF
:1012B000910509F448C02B813C81233031050CF0A5
:1012C00045C08B819C818130910509F439C067C08C
:1012D0002B813C812630310509F441C08B819C81F2
:1012E000873091050CF03EC037C02B813C812C30FB
:1012F000310509F446C08B819C818D3091055CF4E9
:101300002B813C812A303105B1F18B819C818B305E
:101310009105A4F52DC02B813C812E303105B9F10A
:101320008B819C818E3091057CF12B813C812F300B
:10133000310579F18B819C818031910569F12FC054
:1013400087E089832EC088E089832BC089E0898368
:1013500028C085E4898325C084E0898322C085E094
:1013600089831FC086E089831CC084E4898319C0F7
:1013700081E0898316C082E0898313C083E089837A
:1013800010C083E489830DC081E489830AC0198277
:1013900008C08DE3898305C082E4898302C08A8105
:1013A000898389810F900F900F900F90CF91DF91DB
:1013B0000895DF93CF93CDB7DEB72E970FB6F8948D
:1013C000DEBF0FBECDBF81E060E041E00E94A3051B
:1013D00081E061E041E00E94A30580E090E0A0EAA6
:1013E000B1E48B879C87AD87BE876B857C858D85B7
:1013F0009E8520E030E04AE753E40E941F02DC01B2
:10140000CB018F839887A987BA876F817885898573
:101410009A8520E030E040E85FE30E94790388236A
:101420002CF481E090E09E838D833FC06F817885AE
:1014300089859A8520E03FEF4FE757E40E94190322
:1014400018164CF56B857C858D859E8520E030E0F7
:1014500040E251E40E941F02DC01CB01BC01CD013E
:101460000E944900DC01CB019E838D830FC089E17E
:1014700090E09C838B838B819C810197F1F79C8307
:101480008B838D819E8101979E838D838D819E812B
:10149000009769F714C06F81788589859A850E94C5
:1014A0004900DC01CB019E838D838D819E819A83CF
:1014B000898389819A810197F1F79A83898380E0F2
:1014C0006FEF0E94140888E30E94750A8CE00E9466
:1014D000750A81E00E94750A2E960FB6F894DEBF59
:1014E0000FBECDBFCF91DF910895DF93CF93CDB7DE
:1014F000DEB7E9970FB6F894DEBF0FBECDBF89AF58
:1015000081E060E040E00E948E0680E090E0A0E88C
:10151000BFE38DAB9EABAFABB8AF6DA97EA98FA972
:1015200098AD20E030E04AE753E40E941F02DC015E
:10153000CB0189AB9AABABABBCAB69A97AA98BA940
:101540009CA920E030E040E85FE30E947903882313
:101550002CF481E090E098AB8FA73FC069A97AA9ED
:101560008BA99CA920E03FEF4FE757E40E941903A5
:1015700018164CF56DA97EA98FA998AD20E030E032
:1015800040E251E40E941F02DC01CB01BC01CD010D
:101590000E944900DC01CB0198AB8FA70FC089E105
:1015A00090E09EA78DA78DA59EA50197F1F79EA718
:1015B0008DA78FA598A9019798AB8FA78FA598A9FC
:1015C000009769F714C069A97AA98BA99CA90E9400
:1015D0004900DC01CB0198AB8FA78FA598A99CA7E8
:1015E0008BA78BA59CA50197F1F79CA78BA781E002
:1015F00061E041E00E948E0680E090E0A0E8BFE359
:101600008FA398A7A9A7BAA76FA178A589A59AA51E
:1016100020E030E04AE753E40E941F02DC01CB01E6
:101620008BA39CA3ADA3BEA36BA17CA18DA19EA106
:1016300020E030E040E85FE30E94790388232CF447
:1016400081E090E09AA389A33FC06BA17CA18DA10A
:101650009EA120E03FEF4FE757E40E9419031816C0
:101660004CF56FA178A589A59AA520E030E040E26D
:1016700051E40E941F02DC01CB01BC01CD010E949C
:101680004900DC01CB019AA389A30FC089E190E056
:1016900098A38F8F8F8D98A10197F1F798A38F8FC3
:1016A00089A19AA101979AA389A389A19AA10097D8
:1016B00069F714C06BA17CA18DA19EA10E94490075
:1016C000DC01CB019AA389A389A19AA19E8F8D8F5A
:1016D0008D8D9E8D0197F1F79E8F8D8F80E069AD86
:1016E0000E94580880E090E0A0E8BFE3898F9A8FBD
:1016F000AB8FBC8F698D7A8D8B8D9C8D20E030E017
:101700004AE753E40E941F02DC01CB018D8B9E8BC4
:10171000AF8BB88F6D897E898F89988D20E030E0FE
:1017200040E85FE30E94790388232CF481E090E095
:101730009C8B8B8B3FC06D897E898F89988D20E033
:101740003FEF4FE757E40E94190318164CF5698DD7
:101750007A8D8B8D9C8D20E030E040E251E40E9438
:101760001F02DC01CB01BC01CD010E944900DC015C
:10177000CB019C8B8B8B0FC089E190E09A8B898B7E
:1017800089899A890197F1F79A8B898B8B899C8932
:1017900001979C8B8B8B8B899C89009769F714C070
:1017A0006D897E898F89988D0E944900DC01CB016B
:1017B0009C8B8B8B8B899C89988B8F878F85988945
:1017C0000197F1F7988B8F8781E061E040E00E94FC
:1017D0008E0680E090E0A0E8BFE38B879C87AD8712
:1017E000BE876B857C858D859E8520E030E04AE74D
:1017F00053E40E941F02DC01CB018F839887A987E5
:10180000BA876F81788589859A8520E030E040E845
:101810005FE30E94790388232CF481E090E09E83AB
:101820008D833FC06F81788589859A8520E03FEF61
:101830004FE757E40E94190318164CF56B857C8519
:101840008D859E8520E030E040E251E40E941F0239
:10185000DC01CB01BC01CD010E944900DC01CB01C0
:101860009E838D830FC089E190E09C838B838B8165
:101870009C810197F1F79C838B838D819E810197D9
:101880009E838D838D819E81009769F714C06F813F
:10189000788589859A850E944900DC01CB019E8369
:1018A0008D838D819E819A83898389819A81019715
:1018B000F1F79A838983E9960FB6F894DEBF0FBEDD
:1018C000CDBFCF91DF910895DF93CF93CDB7DEB732
:1018D000E9970FB6F894DEBF0FBECDBF89AF81E0A8
:1018E00060E041E00E948E0680E090E0A0E8BFE367
:1018F0008DAB9EABAFABB8AF6DA97EA98FA998ADEC
:1019000020E030E04AE753E40E941F02DC01CB01F3
:1019100089AB9AABABABBCAB69A97AA98BA99CA9E3
:1019200020E030E040E85FE30E94790388232CF454
:1019300081E090E098AB8FA73FC069A97AA98BA9F5
:101940009CA920E03FEF4FE757E40E9419031816C7
:101950004CF56DA97EA98FA998AD20E030E040E25A
:1019600051E40E941F02DC01CB01BC01CD010E94A9
:101970004900DC01CB0198AB8FA70FC089E190E053
:101980009EA78DA78DA59EA50197F1F79EA78DA770
:101990008FA598A9019798AB8FA78FA598A90097B5
:1019A00069F714C069A97AA98BA99CA90E9449006A
:1019B000DC01CB0198AB8FA78FA598A99CA78BA71B
:1019C0008BA59CA50197F1F79CA78BA781E061E00F
:1019D00041E00E948E0680E090E0A0E8BFE38FA384
:1019E00098A7A9A7BAA76FA178A589A59AA520E06D
:1019F00030E04AE753E40E941F02DC01CB018BA3D5
:101A00009CA3ADA3BEA36BA17CA18DA19EA120E050
:101A100030E040E85FE30E94790388232CF481E002
:101A200090E09AA389A33FC06BA17CA18DA19EA148
:101A300020E03FEF4FE757E40E94190318164CF5DA
:101A40006FA178A589A59AA520E030E040E251E495
:101A50000E941F02DC01CB01BC01CD010E944900A4
:101A6000DC01CB019AA389A30FC089E190E098A380
:101A70008F8F8F8D98A10197F1F798A38F8F89A1F0
:101A80009AA101979AA389A389A19AA1009769F7BE
:101A900014C06BA17CA18DA19EA10E944900DC0114
:101AA000CB019AA389A389A19AA19E8F8D8F8D8D39
:101AB0009E8D0197F1F79E8F8D8F80E069AD0E941A
:101AC000580880E090E0A0E8BFE3898F9A8FAB8F41
:101AD000BC8F698D7A8D8B8D9C8D20E030E04AE73C
:101AE00053E40E941F02DC01CB018D8B9E8BAF8BD8
:101AF000B88F6D897E898F89988D20E030E040E82D
:101B00005FE30E94790388232CF481E090E09C8BB2
:101B10008B8B3FC06D897E898F89988D20E03FEF48
:101B20004FE757E40E94190318164CF5698D7A8D1A
:101B30008B8D9C8D20E030E040E251E40E941F023A
:101B4000DC01CB01BC01CD010E944900DC01CB01CD
:101B50009C8B8B8B0FC089E190E09A8B898B898954
:101B60009A890197F1F79A8B898B8B899C890197C8
:101B70009C8B8B8B8B899C89009769F714C06D892E
:101B80007E898F89988D0E944900DC01CB019C8B56
:101B90008B8B8B899C89988B8F878F8598890197F0
:101BA000F1F7988B8F8781E061E040E00E948E061C
:101BB00080E090E0A0E8BFE38B879C87AD87BE877D
:101BC0006B857C858D859E8520E030E04AE753E477
:101BD0000E941F02DC01CB018F839887A987BA87F7
:101BE0006F81788589859A8520E030E040E85FE361
:101BF0000E94790388232CF481E090E09E838D83FA
:101C00003FC06F81788589859A8520E03FEF4FE757
:101C100057E40E94190318164CF56B857C858D8559
:101C20009E8520E030E040E251E40E941F02DC018A
:101C3000CB01BC01CD010E944900DC01CB019E8398
:101C40008D830FC089E190E09C838B838B819C8185
:101C50000197F1F79C838B838D819E8101979E83F1
:101C60008D838D819E81009769F714C06F8178857F
:101C700089859A850E944900DC01CB019E838D8372
:101C80008D819E819A83898389819A810197F1F759
:101C90009A838983E9960FB6F894DEBF0FBECDBF55
:101CA000CF91DF910895DF93CF9300D00F92CDB7FE
:101CB000DEB79B838A8319820EC08981282F30E08A
:101CC0008A819B81FC01E20FF31F80810E94640CDA
:101CD00089818F5F89838981282F30E08A819B8168
:101CE000FC01E20FF31F8081882339F70F900F90DA
:101CF0000F90CF91DF910895DF93CF9300D000D064
:101D00000F92CDB7DEB78A836B838A81282F30E0AC
:101D10003D832C838C819D8181309105C1F02C8184
:101D20003D81223031052CF48C819D81009761F03A
:101D300019C02C813D812230310569F08C819D8153
:101D40008330910561F00EC08B8189830BC08B813C
:101D5000805C898307C08B81805F898303C08B810E
:101D6000805B8983898180680E94750A0F900F903B
:101D70000F900F900F90CF91DF910895DF93CF9345
:101D800000D000D0CDB7DEB789836A835C834B83F4
:101D900089816A810E947C0E8B819C810E94530EF6
:101DA0000F900F900F900F90CF91DF910895DF93D8
:101DB000CF93CDB7DEB762970FB6F894DEBF0FBEF4
:101DC000CDBF9A8B898B89899A899E012F5F3F4F5E
:101DD000B9014AE050E00E942B2DCE0101960E94ED
:101DE000530E62960FB6F894DEBF0FBECDBFCF91F3
:101DF000DF910895DF93CF93CDB7DEB781E00E94E6
:101E0000750ACF91DF910895DF93CF93CDB7DEB7F9
:101E100028970FB6F894DEBF0FBECDBF98878F838B
:101E20001E821D8281E090E09C838B832BC08F817A
:101E300098852AE030E0B9010E94E02C9A838983DA
:101E400029813A818B819C81A901489F9001499FFA
:101E5000300D589F300D11248D819E81820F931F6C
:101E60009E838D838F8198852AE030E0B9010E949E
:101E7000E02CCB0198878F838B819C81880F991FE1
:101E80009C838B838F819885009789F68D819E81B5
:101E900028960FB6F894DEBF0FBECDBFCF91DF916D
:101EA0000895DF93CF93CDB7DEB729970FB6F89497
:101EB000DEBF0FBECDBF9987888781E090E09F830A
:101EC0008E8381E090E09D838C831092B20167C085
:101ED000888599852AE030E0B9010E94E02C9B8337
:101EE0008A832A813B818E819F81AC01249FC0011E
:101EF000259F900D349F900D1124982F8981890F73
:101F000089838C819D8183709070009799F5898178
:101F10008A3080F48091B201282F30E08981482FE7
:101F200050E0C901880F991FFC01ED54FE4F518309
:101F3000408311C08091B201482F50E08981882FE1
:101F400090E0C7969C01CA01880F991FFC01ED54CF
:101F5000FE4F3183208381E090E09F838E8319823E
:101F600081E090E09D838C838091B2018F5F8093AC
:101F7000B2010BC08E819F81880F991F9F838E8332
:101F80008C819D8101969D838C83888599852AE02B
:101F900030E0B9010E94E02CCB01998788878885C1
:101FA0009985009709F094CF8C819D8181309105AE
:101FB00079F08091B201282F30E08981482F50E0DC
:101FC000C901880F991FFC01ED54FE4F51834083D6
:101FD0008C819D818130910529F48091B2018150DD
:101FE0008093B20129960FB6F894DEBF0FBECDBF25
:101FF000CF91DF910895DF93CF93CDB7DEB72897C8
:102000000FB6F894DEBF0FBECDBF98878F831E82B8
:102010001D8281E090E09C838B831A8219822BC001
:102020008F8198852AE030E0B9010E94E02C9A83E4
:10203000898329813A818B819C81A901489F9001E4
:10204000499F300D589F300D11248D819E81820F44
:10205000931F9E838D838B819C81880F991F9C8306
:102060008B838F8198852AE030E0B9010E94E02CB3
:10207000CB0198878F838F819885009789F68D8112
:102080009E8128960FB6F894DEBF0FBECDBFCF91CC
:10209000DF910895DF93CF9300D000D0CDB7DEB7A6
:1020A0009A8389831092B201A5C089819A819C018B
:1020B0002F7030703C832B838B819C818C309105F9
:1020C00009F43EC02B813C812D30310558F48B81C1
:1020D0009C818A309105C1F02B813C812B303105E8
:1020E00009F166C08B819C818E30910509F444C052
:1020F0002B813C812E30310588F18B819C818F3082
:10210000910509F447C054C08091B201882F90E036
:10211000880F991FFC01ED54FE4F81E490E09183FC
:10212000808359C08091B201882F90E0880F991F59
:10213000FC01ED54FE4F82E490E0918380834BC01C
:102140008091B201882F90E0880F991FFC01ED5417
:10215000FE4F83E490E0918380833DC08091B20183
:10216000882F90E0880F991FFC01ED54FE4F84E406
:1021700090E0918380832FC08091B201882F90E0FE
:10218000880F991FFC01ED54FE4F85E490E0918388
:10219000808321C08091B201882F90E0880F991F21
:1021A000FC01ED54FE4F86E490E09183808313C0E0
:1021B0008091B201482F50E089819A818F70907090
:1021C0009C01205D3F4FCA01880F991FFC01ED540F
:1021D000FE4F3183208389819A81929582958F70F9
:1021E00089279F7089279A8389838091B2018F5FA5
:1021F0008093B20189819A81009709F056CF0F90A0
:102200000F900F900F90CF91DF910895DF93CF93B0
:1022100000D0CDB7DEB79A8389831092F3011CC03A
:102220008091F301282F30E089819A81AC014170BF
:102230005070C901880F991FFC01ED52FE4F518368
:10224000408389819A81969587959A838983809125
:10225000F3018F5F8093F30189819A81009701F7E1
:102260000F900F90CF91DF910895DF93CF9300D01F
:10227000CDB7DEB79A8389831092140220C0809173
:102280001402282F30E089819A81AC014770507088
:10229000C901880F991FFC01EC50FE4F5183408308
:1022A00089819A8196958795969587959695879534
:1022B0009A838983809114028F5F809314028981AD
:1022C0009A810097E1F60F900F90CF91DF910895DA
:1022D000EF92FF920F931F93DF93CF93CDB7DEB7AB
:1022E000E9970FB6F894DEBF0FBECDBF1E861D86E0
:1022F00019821A821B821C821D821E821F821886EE
:102300008091B201882F90E09A87898789859A8584
:1023100001979A8789871E861D8669C18D859E854E
:10232000880F991FFC01ED54FE4F808191818A3006
:10233000910560F48D859E85880F991FFC01ED54F1
:10234000FE4F808191819C878B874AC08D859E85B9
:10235000880F991FFC01ED54FE4F808191818136D9
:102360009105D0F08D859E85880F991FFC01ED5455
:10237000FE4F808191818736910570F48D859E8511
:10238000880F991FFC01ED54FE4F80819181875584
:1023900090409C878B8724C08D859E85880F991FD0
:1023A000FC01ED54FE4F8081918181349105C0F094
:1023B0008D859E85880F991FFC01ED54FE4F80810D
:1023C00091818734910560F48D859E85880F991FD2
:1023D000FC01ED54FE4F80819181C7979C878B87CC
:1023E0008B859C857C0100E010E029853A8580E1A1
:1023F00090E0B9010E9437139B01AC01C801B701FD
:102400000E94C12C9B01AC01DA01C901BB0F880BF2
:10241000982FDC012F87388B498B5A8B8B8B8C8BB9
:102420008D8B8E8B89818F8B9A81988F8B81898FF1
:102430009C819A8F8D818B8F9E819C8F8F818D8FB8
:1024400098859E8F8F899F85890F8F8F81E08FA3BD
:102450009F8D8F89981708F01FA2988D8889980FF3
:1024600098A391E098A788A1988D891708F018A6DD
:102470008FA198A1890F89A781E08AA799A588A132
:10248000981708F01AA698A58AA5982B98A799A539
:1024900098A3898D9989890F89A381E08BA799A138
:1024A000898D981708F01BA698A589A1980F9CA75D
:1024B00091E09DA78CA599A1891708F01DA68BA571
:1024C0009DA5892B8BA78CA589A39A8D8A89980FA6
:1024D0009AA391E09EA78AA19A8D891708F01EA65B
:1024E0008BA59AA1890F8FA781E088AB9FA58AA1B0
:1024F000981708F018AA9EA588A9982B9EA79FA5B3
:102500009AA38B8D9B89890F8BA381E089AB9BA1BB
:102510008B8D981708F019AA9EA58BA1980F9AABDE
:1025200091E09BAB8AA99BA1891708F01BAA89A9F6
:102530009BA9892B89AB8AA98BA39C8D8C89980F29
:102540009CA391E09CAB8CA19C8D891708F01CAAE0
:1025500089A99CA1890F8DAB81E08EAB9DA98CA12F
:10256000981708F01EAA9CA98EA9982B9CAB9DA930
:102570009CA38D8D9D89890F8DA381E08FAB9DA13B
:102580008D8D981708F01FAA9CA98DA1980F98AF60
:1025900091E099AF88AD9DA1891708F019AE8FA978
:1025A00099AD892B8FAB88AD8DA39E8D8E89980FA9
:1025B0009EA38FA99EA1890F8EA38F8D898398A139
:1025C0009A8389A18B839AA19C838BA18D839CA1E3
:1025D0009E838DA18F839EA1988789859A85019777
:1025E0009A8789878D859E8501969E878D878D85A3
:1025F0009E85880F991FFC01ED54FE4F80819181CB
:102600008D33910509F08ACE89819A81E9960FB6BA
:10261000F894DEBF0FBECDBFCF91DF911F910F9118
:10262000FF90EF900895DF93CF9300D0CDB7DEB742
:102630000E9468119A83898389819A810E94061178
:102640000F900F90CF91DF910895DF93CF9300D03B
:10265000CDB7DEB70E9468119A83898389819A81F8
:102660000E9435110F900F90CF91DF910895DF9365
:10267000CF93CDB7DEB728970FB6F894DEBF0FBE65
:10268000CDBF9E838D8378876F8381E090E09A83AE
:1026900089831C821B8213C029813A818D819E818E
:1026A000AC01249FC001259F900D349F900D1124F3
:1026B0009A8389838B819C8101969C838B832B8158
:1026C0003C818F8198852817390734F389819A8155
:1026D000AA2797FDA095BA2FBC01CD0128960FB669
:1026E000F894DEBF0FBECDBFCF91DF9108950F9359
:1026F0001F93DF93CF93CDB7DEB7C155D0400FB650
:10270000F894DEBF0FBECDBFFE01E75BFF4F118225
:1027100010820E94D90920E630E080E060E0A90143
:102720000E94BE0E20E730E081E060E0A9010E9437
:10273000BE0E0E94E108FE01E35BFF4F8083FE01B5
:10274000ED5BFF4F80E090E0AFEAB3E480839183DC
:10275000A283B3838E01015C1F4FFE01ED5BFF4F2F
:10276000608171818281938120E030E04AE753E407
:102770000E941F02DC01CB01F80180839183A283B8
:10278000B383FE01FF96608171818281938120E095
:1027900030E040E85FE30E94790388232CF481E075
:1027A00090E09EAF8DAF46C0FE01FF9660817181C3
:1027B0008281938120E03FEF4FE757E40E941903A5
:1027C000181664F5FE01ED5BFF4F60817181828117
:1027D000938120E030E040E251E40E941F02DC01DE
:1027E000CB01BC01CD010E944900DC01CB019EAFB1
:1027F0008DAF0FC089E190E09CAF8BAF8BAD9CADEE
:102800000197F1F79CAF8BAF8DAD9EAD01979EAF59
:102810008DAF8DAD9EAD009769F716C0FE01FF9696
:1028200060817181828193810E944900DC01CB012A
:102830009EAF8DAF8DAD9EAD9AAF89AF89AD9AAD8C
:102840000197F1F79AAF89AFFE01E35BFF4F8081FB
:10285000282F30E062963FAF2EAF629762968EAD22
:102860009FAD62978130910549F06296EEADFFAD64
:102870006297E230F10509F42AC236C20E940E17AF
:10288000FE01E75BFF4F918380830E94FA0E2DE7E4
:1028900030E080E060E0A9010E94BE0E2AE830E04E
:1028A00081E060E0A9010E94BE0E0E94E108FE01E5
:1028B000E45BFF4F80830E94FA0E28E930E080E05D
:1028C00060E0A9010E94BE0E0E94E108FE01E55BE6
:1028D000FF4F8083FE01E45BFF4F8081282F30E0B3
:1028E00060963FAF2EAF609760968EAD9FAD6097BC
:1028F0008130910541F06096EEADFFAD6097E2301A
:10290000F105C9F030C0FE01E55BFF4F8081282F43
:1029100030E0DE01A75BBF4FFE01E75BFF4F808128
:102920009181022E02C0880F991F0A94E2F7119636
:102930009C938E9393C0FE01E55BFF4F8081282F0F
:1029400030E0DE01A75BBF4FFE01E75BFF4F8081F8
:102950009181022E02C0969587950A94E2F711960E
:102960009C938E937BC00E94FA0E28EA30E080E0B0
:1029700060E0A9010E94BE0E80E090E0AAE7B4E406
:102980008DAB9EABAFABB8AF6DA97EA98FA998AD4B
:1029900020E030E04AE753E40E941F02DC01CB0153
:1029A00089AB9AABABABBCAB69A97AA98BA99CA943
:1029B00020E030E040E85FE30E94790388232CF4B4
:1029C00081E090E098AB8FA73FC069A97AA98BA955
:1029D0009CA920E03FEF4FE757E40E941903181627
:1029E0004CF56DA97EA98FA998AD20E030E040E2BA
:1029F00051E40E941F02DC01CB01BC01CD010E9409
:102A00004900DC01CB0198AB8FA70FC089E190E0B2
:102A10009EA78DA78DA59EA50197F1F79EA78DA7CF
:102A20008FA598A9019798AB8FA78FA598A9009714
:102A300069F714C069A97AA98BA99CA90E944900C9
:102A4000DC01CB0198AB8FA78FA598A99CA78BA77A
:102A50008BA59CA50197F1F79CA78BA70E94FA0E66
:102A600020EB30E080E060E0A9010E94BE0E80E033
:102A700068E00E947C0EFE01E75BFF4F8081918140
:102A80000E94D70E80E090E0AAEFB3E48FA398A74E
:102A9000A9A7BAA76FA178A589A59AA520E030E0DB
:102AA0004AE753E40E941F02DC01CB018BA39CA3E5
:102AB000ADA3BEA36BA17CA18DA19EA120E030E0BF
:102AC00040E85FE30E94790388232CF481E090E0E2
:102AD0009AA389A33FC06BA17CA18DA19EA120E0F8
:102AE0003FEF4FE757E40E94190318164CF56FA10A
:102AF00078A589A59AA520E030E040E251E40E9443
:102B00001F02DC01CB01BC01CD010E944900DC01A8
:102B1000CB019AA389A30FC089E190E098A38F8F7E
:102B20008F8D98A10197F1F798A38F8F89A19AA112
:102B300001979AA389A389A19AA1009769F714C064
:102B40006BA17CA18DA19EA10E944900DC01CB015B
:102B50009AA389A389A19AA19E8F8D8F8D8D9E8D19
:102B60000197F1F79E8F8D8F2AEB30E081E060E0D6
:102B7000A9010E94BE0EFE01E75BFF4F808191819B
:102B80000E94061181E065E00E947C0E8091F301B5
:102B9000882F90E0FE01E95BFF4F019791838083CE
:102BA0001AC0FE01E95BFF4F80819181880F991F58
:102BB000FC01ED52FE4F808191810E94D70EDE0113
:102BC000A95BBF4FFE01E95BFF4F808191810197B7
:102BD00011969C938E93FE01E95BFF4F808191815A
:102BE0009923FCF680E090E0AAEFB3E4898F9A8FF6
:102BF000AB8FBC8F698D7A8D8B8D9C8D20E030E002
:102C00004AE753E40E941F02DC01CB018D8B9E8BAF
:102C1000AF8BB88F6D897E898F89988D20E030E0E9
:102C200040E85FE30E94790388232CF481E090E080
:102C30009C8B8B8B3FC06D897E898F89988D20E01E
:102C40003FEF4FE757E40E94190318164CF5698DC2
:102C50007A8D8B8D9C8D20E030E040E251E40E9423
:102C60001F02DC01CB01BC01CD010E944900DC0147
:102C7000CB019C8B8B8B0FC089E190E09A8B898B69
:102C800089899A890197F1F79A8B898B8B899C891D
:102C900001979C8B8B8B8B899C89009769F714C05B
:102CA0006D897E898F89988D0E944900DC01CB0156
:102CB0009C8B8B8B8B899C89988B8F878F85988930
:102CC0000197F1F7988B8F870E94FA0E24CD0E940E
:102CD000F016FE01E35BFF4F8083FE01E35BFF4FD5
:102CE00080810E94461817CD0E94FA0E28EA30E033
:102CF00080E060E0A9010E94BE0E80E090E0AAEFB3
:102D0000B4E48B879C87AD87BE876B857C858D857A
:102D10009E8520E030E04AE753E40E941F02DC0178
:102D2000CB018F839887A987BA876F81788589853A
:102D30009A8520E030E040E85FE30E947903882331
:102D40002CF481E090E09E838D833FC06F81788575
:102D500089859A8520E03FEF4FE757E40E941903E9
:102D600018164CF56B857C858D859E8520E030E0BE
:102D700040E251E40E941F02DC01CB01BC01CD0105
:102D80000E944900DC01CB019E838D830FC089E145
:102D900090E09C838B838B819C810197F1F79C83CE
:102DA0008B838D819E8101979E838D838D819E81F2
:102DB000009769F7B0CC6F81788589859A850E94E4
:102DC0004900DC01CB019E838D838D819E819A8396
:102DD000898389819A810197F1F79A8389839BCCB2
:102DE000DF93CF930F92CDB7DEB719820E94FA0E10
:102DF0002FEB30E080E060E0A9010E94BE0E2DECD8
:102E000030E081E060E0A9010E94BE0E0E94E1086E
:102E1000898389810F90CF91DF9108950F931F933C
:102E2000DF93CF93CDB7DEB7E4970FB6F894DEBF4C
:102E30000FBECDBF1A8A8AE0888B0E94FA0E2DED54
:102E400030E080E060E0A9010E94BE0E97C08A8950
:102E5000082F10E00E94E108482F50E09801220F4F
:102E6000331FCE010196820F931FFC01749651838C
:102E7000408380E090E0AFEAB3E48B879C87AD8726
:102E8000BE876B857C858D859E8520E030E04AE796
:102E900053E40E941F02DC01CB018F839887A9872E
:102EA000BA876F81788589859A8520E030E040E88F
:102EB0005FE30E94790388232CF481E090E09E83F5
:102EC0008D833FC06F81788589859A8520E03FEFAB
:102ED0004FE757E40E94190318164CF56B857C8563
:102EE0008D859E8520E030E040E251E40E941F0283
:102EF000DC01CB01BC01CD010E944900DC01CB010A
:102F00009E838D830FC089E190E09C838B838B81AE
:102F10009C810197F1F79C838B838D819E81019722
:102F20009E838D838D819E81009769F714C06F8188
:102F3000788589859A850E944900DC01CB019E83B2
:102F40008D838D819E819A83898389819A8101975E
:102F5000F1F79A8389838A89882F90E09C01220F58
:102F6000331FCE010196820F931FFC01749680815E
:102F700091810E94D70E8A898F5F8A8B0E94E10817
:102F80008D3309F064CF8A89882F90E09C01220F4D
:102F9000331FCE010196820F931FFC0174968DE3BF
:102FA00090E091838083198A52C08D899E898F8792
:102FB0008989813011F58F85282F30E08889882F05
:102FC00090E0AC01249FC001259F900D349F900D8F
:102FD0001124AC018989882F90E09C01220F331FB6
:102FE000CE010196820F931FFC017496808191811E
:102FF000840F951F9C8B8B8B27C089898230F8F0BA
:103000008889282F30E08B899C89289FA001299FDF
:10301000500D389F500D11248989882F90E09C0114
:10302000220F331FCE010196820F931FFC0174966D
:1030300080819181840F951F9C8B8B8B05C08F8520
:10304000882F90E09C8B8B8B89898F5F898B8989F6
:10305000882F90E09C01220F331FCE010196820F32
:10306000931FFC017496808191818D33910509F045
:103070009CCF8B899C89E4960FB6F894DEBF0FBE77
:10308000CDBFCF91DF911F910F9108950F931F93A3
:10309000DF93CF93CDB7DEB7C255D1400FB6F894CA
:1030A000DEBF0FBECDBFFE01E85BFE4F8083FE0199
:1030B000E85BFE4F8081282F30E0CF5ADE4F398306
:1030C0002883C155D140CF5ADE4F88819981C1559F
:1030D000D1408230910509F4F7C4CF5ADE4FE88120
:1030E000F981C155D140E330F1055CF4CF5ADE4F90
:1030F00028813981C155D14021303105D1F00C945E
:10310000432ACF5ADE4F88819981C155D1408330FF
:10311000910511F40C94EA21CF5ADE4FE881F98130
:10312000C155D140E430F10511F40C9457260C94AC
:10313000432A0E94FA0E22EE30E080E060E0A9010E
:103140000E94BE0E25EF30E081E060E0A9010E9400
:10315000BE0E0E94E108FE01EB5BFE4F8083FE0184
:10316000EF5CFE4F80E090E0AFEAB3E480839183B0
:10317000A283B3838E01035D1E4FFE01EF5CFE4F01
:10318000608171818281938120E030E04AE753E4DD
:103190000E941F02DC01CB01F80180839183A2838E
:1031A000B383FE01E35DFE4F608171818281938173
:1031B00020E030E040E85FE30E947903882344F494
:1031C000FE01E55DFE4F81E090E09183808364C065
:1031D000FE01E35DFE4F608171818281938120E079
:1031E0003FEF4FE757E40E94190318160CF043C055
:1031F000FE01EF5CFE4F608171818281938120E04E
:1032000030E040E251E40E941F02DC01CB018E015C
:10321000055D1E4FBC01CD010E944900DC01CB01C0
:10322000F801918380831FC0FE01E75DFE4F89E1B5
:1032300090E091838083FE01E75DFE4F8081918164
:103240000197F1F7FE01E75DFE4F91838083DE0178
:10325000A55DBE4FFE01E55DFE4F80819181019726
:1032600011969C938E93FE01E55DFE4F80819181C6
:103270000097D1F628C08E01055D1E4FFE01E35D6B
:10328000FE4F60817181828193810E944900DC013F
:10329000CB01F80191838083DE01A95DBE4FFE0161
:1032A000E55DFE4F8081918111969C938E93FE0186
:1032B000E95DFE4F808191810197F1F7FE01E95DA3
:1032C000FE4F91838083FE01EB5BFE4F8081282FB0
:1032D00030E0C15BDE4F39832883CF54D140C15BDE
:1032E000DE4F88819981CF54D1408230910509F415
:1032F00012C1C15BDE4FE881F981CF54D140E33088
:10330000F10509F420C2C15BDE4F28813981CF5419
:10331000D1402130310509F010C30E940E17FE0183
:10332000EA5BFE4F91838083FE01EA5BFE4F808162
:1033300091810E9406110E94FA0E2EEF30E080E08B
:1033400060E0A9010E94BE0E81E060E00E947C0E58
:103350008091F301882F90E0FE01ED5BFE4F019715
:10336000918380831AC0FE01ED5BFE4F80819181C5
:10337000880F991FFC01ED52FE4F808191810E94C0
:10338000D70EDE01AD5BBE4FFE01ED5BFE4F8081CF
:103390009181019711969C938E93FE01ED5BFE4FF8
:1033A000808191819923FCF6FE01ED5DFE4F80E066
:1033B00090E0AAEFB3E480839183A283B3838E016C
:1033C000015E1E4FFE01ED5DFE4F608171818281C5
:1033D000938120E030E04AE753E40E941F02DC01C1
:1033E000CB01F80180839183A283B383FE01E15E68
:1033F000FE4F608171818281938120E030E040E85E
:103400005FE30E947903882344F4FE01E35EFE4FEC
:1034100081E090E09183808365C0FE01E15EFE4F14
:10342000608171818281938120E03FEF4FE757E413
:103430000E94190318160CF044C0FE01ED5DFE4F0A
:10344000608171818281938120E030E040E251E42B
:103450000E941F02DC01CB018E01035E1E4FBC01E6
:10346000CD010E944900DC01CB01F80191838083EA
:103470001FC0FE01E55EFE4F89E190E091838083ED
:10348000FE01E55EFE4F808191810197F1F7FE011B
:10349000E55EFE4F91838083DE01A35EBE4FFE0199
:1034A000E35EFE4F80819181019711969C938E93EC
:1034B000FE01E35EFE4F808191810097D1F60C946E
:1034C000492B8E01035E1E4FFE01E15EFE4F6081BF
:1034D0007181828193810E944900DC01CB01F80156
:1034E00091838083DE01A75EBE4FFE01E35EFE4F47
:1034F0008081918111969C938E93FE01E75EFE4F31
:10350000808191810197F1F7FE01E75EFE4F918383
:1035100080830C94492B0E940E17FE01EA5BFE4F3C
:1035200091838083FE01EA5BFE4F808191810E943E
:103530004A100E94FA0E2FE031E080E060E0A9011D
:103540000E94BE0E8091B201882F90E0FE01EF5BD9
:10355000FE4F01979183808338C0FE01EF5BFE4FE1
:1035600080819181880F991FFC01ED54FE4F80816D
:1035700091818A30910578F4FE01EF5BFE4F8081E6
:103580009181880F991FFC01ED54FE4F808191813C
:103590000E94D70E0EC0FE01EF5BFE4F808191812D
:1035A000880F991FFC01ED54FE4F808191810E948C
:1035B000640CDE01AF5BBE4FFE01EF5BFE4F80810E
:1035C0009181019711969C938E93FE01EF5BFE4FC4
:1035D0008081918199230CF6FE01EB5EFE4F80E025
:1035E00090E0AAEFB3E480839183A283B3838E013A
:1035F0000F5E1E4FFE01EB5EFE4F60817181828186
:10360000938120E030E04AE753E40E941F02DC018E
:10361000CB01F80180839183A283B383FE01EF5E27
:10362000FE4F608171818281938120E030E040E82B
:103630005FE30E947903882344F4FE01E15FFE4FBB
:1036400081E090E09183808365C0FE01EF5EFE4FD4
:10365000608171818281938120E03FEF4FE757E4E1
:103660000E94190318160CF044C0FE01EB5EFE4FD9
:10367000608171818281938120E030E040E251E4F9
:103680000E941F02DC01CB018E01015F1E4FBC01B5
:10369000CD010E944900DC01CB01F80191838083B8
:1036A0001FC0FE01E35FFE4F89E190E091838083BC
:1036B000FE01E35FFE4F808191810197F1F7FE01EA
:1036C000E35FFE4F91838083DE01A15FBE4FFE0169
:1036D000E15FFE4F80819181019711969C938E93BB
:1036E000FE01E15FFE4F808191810097D1F60C943D
:1036F000492B8E01015F1E4FFE01EF5EFE4F608180
:103700007181828193810E944900DC01CB01F80123
:1037100091838083DE01A55FBE4FFE01E15FFE4F16
:103720008081918111969C938E93FE01E55FFE4FFF
:10373000808191810197F1F7FE01E55FFE4F918352
:1037400080830C94492B0E940E17FE01EA5BFE4F0A
:1037500091838083FE01EA5BFE4F808191810E940C
:1037600035110E94FA0E25E131E080E060E0A90108
:103770000E94BE0E80911402882F90E0FE01E15C51
:10378000FE4F0197918380831AC0FE01E15CFE4FDA
:1037900080819181880F991FFC01EC50FE4F808140
:1037A00091810E94D70EDE01A15CBE4FFE01E15C5B
:1037B000FE4F80819181019711969C938E93FE011B
:1037C000E15CFE4F808191819923FCF6FE01E95F67
:1037D000FE4F80E090E0AAEFB3E480839183A28360
:1037E000B3838E010D5F1E4FFE01E95FFE4F6081C6
:1037F00071818281938120E030E04AE753E40E94A6
:103800001F02DC01CB01F80180839183A283B38383
:10381000FE01ED5FFE4F608171818281938120E026
:1038200030E040E85FE30E947903882344F4FE011E
:10383000EF5FFE4F81E090E09183808365C0FE01E1
:10384000ED5FFE4F608171818281938120E03FEFC7
:103850004FE757E40E94190318160CF044C0FE010C
:10386000E95FFE4F608171818281938120E030E0C9
:1038700040E251E40E941F02DC01CB018E010F5F88
:103880001E4FBC01CD010E944900DC01CB01F801B3
:10389000918380831FC0FE01E150FF4F89E190E0DA
:1038A00091838083FE01E150FF4F808191810197D8
:1038B000F1F7FE01E150FF4F91838083DE01AF5F9E
:1038C000BE4FFE01EF5FFE4F8081918101971196FF
:1038D0009C938E93FE01EF5FFE4F80819181009754
:1038E000D1F60C94492B8E010F5F1E4FFE01ED5F48
:1038F000FE4F60817181828193810E944900DC01C9
:10390000CB01F80191838083DE01A350BF4FFE01FC
:10391000EF5FFE4F8081918111969C938E93FE0103
:10392000E350FF4F808191810197F1F7FE01E35051
:10393000FF4F918380830C94492B0E94FA0E2BE158
:1039400031E080E060E0A9010E94BE0E2BE231E090
:1039500081E060E0A9010E94BE0EFE01E750FF4F2A
:1039600080E090E0AFEAB3E480839183A283B383E5
:103970008E010B501F4FFE01E750FF4F6081718198
:103980008281938120E030E04AE753E40E941F02E5
:10399000DC01CB01F80180839183A283B383FE0114
:1039A000EB50FF4F608171818281938120E030E094
:1039B00040E85FE30E947903882344F4FE01ED5060
:1039C000FF4F81E090E09183808365C0FE01EB5062
:1039D000FF4F608171818281938120E03FEF4FE74B
:1039E00057E40E94190318160CF044C0FE01E7507A
:1039F000FF4F608171818281938120E030E040E25D
:103A000051E40E941F02DC01CB018E010D501F4FBB
:103A1000BC01CD010E944900DC01CB01F80191837A
:103A200080831FC0FE01EF50FF4F89E190E091833A
:103A30008083FE01EF50FF4F808191810197F1F764
:103A4000FE01EF50FF4F91838083DE01AD50BF4FE9
:103A5000FE01ED50FF4F80819181019711969C935B
:103A60008E93FE01ED50FF4F808191810097D1F63A
:103A70000C94492B8E010D501F4FFE01EB50FF4F50
:103A800060817181828193810E944900DC01CB01B8
:103A9000F80191838083DE01A151BF4FFE01ED50FB
:103AA000FF4F8081918111969C938E93FE01E1518D
:103AB000FF4F808191810197F1F7FE01E151FF4FA6
:103AC000918380830C94492B0E94FA0E23E331E00A
:103AD00080E060E0A9010E94BE0E25EF30E081E0A9
:103AE00060E0A9010E94BE0E0E94E108FE01EB5BAE
:103AF000FE4F8083FE01E551FF4F80E090E0AFEA8A
:103B0000B3E480839183A283B3838E0109511F4F55
:103B1000FE01E551FF4F608171818281938120E038
:103B200030E04AE753E40E941F02DC01CB01F801B8
:103B300080839183A283B383FE01E951FF4F6081AB
:103B400071818281938120E030E040E85FE30E9450
:103B50007903882344F4FE01EB51FF4F81E090E0AC
:103B60009183808364C0FE01E951FF4F60817181C0
:103B70008281938120E03FEF4FE757E40E941903D1
:103B800018160CF043C0FE01E551FF4F60817181B2
:103B90008281938120E030E040E251E40E941F02E4
:103BA000DC01CB018E010B511F4FBC01CD010E94E6
:103BB0004900DC01CB01F801918380831FC0FE0125
:103BC000ED51FF4F89E190E091838083FE01ED513B
:103BD000FF4F808191810197F1F7FE01ED51FF4F79
:103BE00091838083DE01AB51BF4FFE01EB51FF4F4C
:103BF00080819181019711969C938E93FE01EB51E8
:103C0000FF4F808191810097D1F628C08E010B5122
:103C10001F4FFE01E951FF4F6081718182819381C5
:103C20000E944900DC01CB01F80191838083DE0111
:103C3000AF51BF4FFE01EB51FF4F80819181119633
:103C40009C938E93FE01EF51FF4F808191810197EC
:103C5000F1F7FE01EF51FF4F91838083FE01EB5B93
:103C6000FE4F8081282F30E0C35BDE4F39832883ED
:103C7000CD54D140C35BDE4F88819981CD54D14072
:103C80008230910509F4EEC0C35BDE4FE881F98113
:103C9000CD54D140E330F10509F4FBC1C35BDE4FE5
:103CA00028813981CD54D1402130310509F0CBC272
:103CB0000E940E17FE01EA5BFE4F91838083FE0196
:103CC000EA5BFE4F808191810E94040FFE01EA5B56
:103CD000FE4F918380830E94FA0E26E431E080E05B
:103CE00060E0A9010E94BE0EFE01EA5BFE4F8081EA
:103CF00091810E94D70EFE01E352FF4F80E090E0D9
:103D0000AAEFB3E480839183A283B3838E01075229
:103D10001F4FFE01E352FF4F6081718182819381C9
:103D200020E030E04AE753E40E941F02DC01CB01AF
:103D3000F80180839183A283B383FE01E752FF4F92
:103D4000608171818281938120E030E040E85FE30F
:103D50000E947903882344F4FE01E952FF4F81E079
:103D600090E09183808365C0FE01E752FF4F608140
:103D700071818281938120E03FEF4FE757E40E94F9
:103D8000190318160CF044C0FE01E352FF4F608186
:103D900071818281938120E030E040E251E40E9411
:103DA0001F02DC01CB018E0109521F4FBC01CD0166
:103DB0000E944900DC01CB01F801918380831FC080
:103DC000FE01EB52FF4F89E190E091838083FE0179
:103DD000EB52FF4F808191810197F1F7FE01EB5289
:103DE000FF4F91838083DE01A952BF4FFE01E9524C
:103DF000FF4F80819181019711969C938E93FE01D4
:103E0000E952FF4F808191810097D1F60C94492BA4
:103E10008E0109521F4FFE01E752FF4F60817181F1
:103E2000828193810E944900DC01CB01F8019183DA
:103E30008083DE01AD52BF4FFE01E952FF4F80810A
:103E4000918111969C938E93FE01ED52FF4F8081DC
:103E500091810197F1F7FE01ED52FF4F918380832D
:103E60000C94492B0E940E17FE01EA5BFE4F9183D2
:103E70008083FE01EA5BFE4F808191810E94510F99
:103E80000E94FA0E2FE031E080E060E0A9010E947C
:103E9000BE0E8091B201FE01E35CFE4F882F90E0E0
:103EA0009183808338C0FE01E35CFE4F8081918165
:103EB000880F991FFC01ED54FE4F808191818A305B
:103EC000910578F4FE01E35CFE4F80819181880FBB
:103ED000991FFC01ED54FE4F808191810E94D70E05
:103EE0000EC0FE01E35CFE4F80819181880F991F17
:103EF000FC01ED54FE4F808191810E94640CDE0133
:103F0000A35CBE4FFE01E35CFE4F8081918101976F
:103F100011969C938E93FE01E35CFE4F808191810C
:103F200099230CF6FE01E153FF4F80E090E0AAEFE9
:103F3000B3E480839183A283B3838E0105531F4F23
:103F4000FE01E153FF4F608171818281938120E006
:103F500030E04AE753E40E941F02DC01CB01F80184
:103F600080839183A283B383FE01E553FF4F608179
:103F700071818281938120E030E040E85FE30E941C
:103F80007903882344F4FE01E753FF4F81E090E07A
:103F90009183808365C0FE01E553FF4F608171818D
:103FA0008281938120E03FEF4FE757E40E9419039D
:103FB00018160CF044C0FE01E153FF4F608171817F
:103FC0008281938120E030E040E251E40E941F02B0
:103FD000DC01CB018E0107531F4FBC01CD010E94B4
:103FE0004900DC01CB01F801918380831FC0FE01F1
:103FF000E953FF4F89E190E091838083FE01E9530B
:10400000FF4F808191810197F1F7FE01E953FF4F46
:1040100091838083DE01A753BF4FFE01E753FF4F1B
:1040200080819181019711969C938E93FE01E753B5
:10403000FF4F808191810097D1F60C94492B8E011E
:1040400007531F4FFE01E553FF4F6081718182814D
:1040500093810E944900DC01CB01F80191838083A8
:10406000DE01AB53BF4FFE01E753FF4F80819181CB
:1040700011969C938E93FE01EB53FF4F80819181AB
:104080000197F1F7FE01EB53FF4F918380830C946E
:10409000492B0E940E17FE01EA5BFE4F918380833D
:1040A000FE01EA5BFE4F808191810E94FB0FFE01C1
:1040B000EA5BFE4F918380830E94FA0E2CE431E08C
:1040C00080E060E0A9010E94BE0EFE01EA5BFE4FA7
:1040D000808191810E94D70EFE01EF53FF4F80E057
:1040E00090E0AAEFB3E480839183A283B3838E012F
:1040F00003541F4FFE01EF53FF4F60817181828196
:10410000938120E030E04AE753E40E941F02DC0183
:10411000CB01F80180839183A283B383FE01E35432
:10412000FF4F608171818281938120E030E040E81F
:104130005FE30E947903882344F4FE01E554FF4FB6
:1041400081E090E09183808365C0FE01E354FF4FDE
:10415000608171818281938120E03FEF4FE757E4D6
:104160000E94190318160CF044C0FE01EF53FF4FD4
:10417000608171818281938120E030E040E251E4EE
:104180000E941F02DC01CB018E0105541F4FBC01B0
:10419000CD010E944900DC01CB01F80191838083AD
:1041A0001FC0FE01E754FF4F89E190E091838083B7
:1041B000FE01E754FF4F808191810197F1F7FE01E5
:1041C000E754FF4F91838083DE01A554BF4FFE016A
:1041D000E554FF4F80819181019711969C938E93B6
:1041E000FE01E554FF4F808191810097D1F60C9438
:1041F000492B8E0105541F4FFE01E354FF4F608190
:104200007181828193810E944900DC01CB01F80118
:1042100091838083DE01A954BF4FFE01E554FF4F17
:104220008081918111969C938E93FE01E954FF4FFA
:10423000808191810197F1F7FE01E954FF4F91834D
:1042400080830C94492B0E94FA0E2BE131E080E030
:1042500060E0A9010E94BE0E2BE231E081E060E047
:10426000A9010E94BE0EFE01ED54FF4F80E090E0D8
:10427000AFEAB3E480839183A283B3838E010155B7
:104280001F4FFE01ED54FF4F608171818281938148
:1042900020E030E04AE753E40E941F02DC01CB013A
:1042A000F80180839183A283B383FE01E155FF4F20
:1042B000608171818281938120E030E040E85FE39A
:1042C0000E947903882344F4FE01E355FF4F81E007
:1042D00090E09183808365C0FE01E155FF4F6081CE
:1042E00071818281938120E03FEF4FE757E40E9484
:1042F000190318160CF044C0FE01ED54FF4F608105
:1043000071818281938120E030E040E251E40E949B
:104310001F02DC01CB018E0103551F4FBC01CD01F3
:104320000E944900DC01CB01F801918380831FC00A
:10433000FE01E555FF4F89E190E091838083FE0106
:10434000E555FF4F808191810197F1F7FE01E55519
:10435000FF4F91838083DE01A355BF4FFE01E355DC
:10436000FF4F80819181019711969C938E93FE015E
:10437000E355FF4F808191810097D1F60C94492B32
:104380008E0103551F4FFE01E155FF4F6081718182
:10439000828193810E944900DC01CB01F801918365
:1043A0008083DE01A755BF4FFE01E355FF4F80819B
:1043B000918111969C938E93FE01E755FF4F80816A
:1043C00091810197F1F7FE01E755FF4F91838083BB
:1043D0000C94492B0E94FA0E22E531E080E060E067
:1043E000A9010E94BE0E25EF30E081E060E0A90146
:1043F0000E94BE0E0E94E108FE01EB5BFE4F80832F
:10440000FE01EB55FF4F80E090E0AFEAB3E480831C
:104410009183A283B3838E010F551F4FFE01EB558D
:10442000FF4F608171818281938120E030E04AE713
:1044300053E40E941F02DC01CB01F80180839183C9
:10444000A283B383FE01EF55FF4F608171818281AA
:10445000938120E030E040E85FE30E947903882305
:1044600044F4FE01E156FF4F81E090E091838083A8
:1044700064C0FE01EF55FF4F60817181828193819D
:1044800020E03FEF4FE757E40E94190318160CF0A5
:1044900043C0FE01EB55FF4F6081718182819381A2
:1044A00020E030E040E251E40E941F02DC01CB0139
:1044B0008E0101561F4FBC01CD010E944900DC0155
:1044C000CB01F801918380831FC0FE01E356FF4FAB
:1044D00089E190E091838083FE01E356FF4F808164
:1044E00091810197F1F7FE01E356FF4F918380839D
:1044F000DE01A156BF4FFE01E156FF4F8081918141
:10450000019711969C938E93FE01E156FF4F808197
:1045100091810097D1F628C08E0101561F4FFE01F0
:10452000EF55FF4F60817181828193810E94490024
:10453000DC01CB01F80191838083DE01A556BF4FDA
:10454000FE01E156FF4F8081918111969C938E93DD
:10455000FE01E556FF4F808191810197F1F7FE0141
:10456000E556FF4F91838083FE01EB5BFE4F808118
:10457000282F30E0C55BDE4F39832883CB54D140F0
:10458000C55BDE4F88819981CB54D1408230910543
:1045900009F4E4C0C55BDE4FE881F981CB54D1401A
:1045A000E330F10509F4CCC1C55BDE4F28813981C8
:1045B000CB54D1402130310509F0B4C20E94552BB3
:1045C0000E94FA0E0E946811FE01EA5BFE4F918381
:1045D000808325E631E080E060E0A9010E94BE0E04
:1045E000FE01EA5BFE4F808191810E94D70EFE01A1
:1045F000E956FF4F80E090E0AAEFB3E48083918317
:10460000A283B3838E010D561F4FFE01E956FF4F63
:10461000608171818281938120E030E04AE753E438
:104620000E941F02DC01CB01F80180839183A283E9
:10463000B383FE01ED56FF4F6081718182819381CA
:1046400020E030E040E85FE30E947903882344F4EF
:10465000FE01EF56FF4F81E090E09183808365C0BB
:10466000FE01ED56FF4F608171818281938120E0D0
:104670003FEF4FE757E40E94190318160CF044C0AF
:10468000FE01E956FF4F608171818281938120E0B4
:1046900030E040E251E40E941F02DC01CB018E01B8
:1046A0000F561F4FBC01CD010E944900DC01CB0118
:1046B000F801918380831FC0FE01E157FF4F89E11C
:1046C00090E091838083FE01E157FF4F80819181CB
:1046D0000197F1F7FE01E157FF4F91838083DE01DF
:1046E000AF56BF4FFE01EF56FF4F8081918101977A
:1046F00011969C938E93FE01EF56FF4F808191811E
:104700000097D1F60C94492B8E010F561F4FFE01D6
:10471000ED56FF4F60817181828193810E94490033
:10472000DC01CB01F80191838083DE01A357BF4FE9
:10473000FE01EF56FF4F8081918111969C938E93DD
:10474000FE01E357FF4F808191810197F1F7FE0150
:10475000E357FF4F918380830C94492B0E94552B84
:104760000E94FA0E0E9413132EEF30E080E060E00A
:10477000A9010E94BE0E81E060E00E947C0E809143
:10478000F301882F90E0FE01E55CFE4F01979183D5
:1047900080831AC0FE01E55CFE4F80819181880F05
:1047A000991FFC01ED52FE4F808191810E94D70E2E
:1047B000DE01A55CBE4FFE01E55CFE4F808191816C
:1047C000019711969C938E93FE01E55CFE4F8081CC
:1047D00091819923FCF6FE01E757FF4F80E090E0BE
:1047E000AAEFB3E480839183A283B3838E010B5736
:1047F0001F4FFE01E757FF4F6081718182819381D6
:1048000020E030E04AE753E40E941F02DC01CB01C4
:10481000F80180839183A283B383FE01EB57FF4F9E
:10482000608171818281938120E030E040E85FE324
:104830000E947903882344F4FE01ED57FF4F81E085
:1048400090E09183808364C0FE01EB57FF4F60814D
:1048500071818281938120E03FEF4FE757E40E940E
:10486000190318160CF043C0FE01E757FF4F608193
:1048700071818281938120E030E040E251E40E9426
:104880001F02DC01CB018E010D571F4FBC01CD0172
:104890000E944900DC01CB01F801918380831FC095
:1048A000FE01EF57FF4F89E190E091838083FE0185
:1048B000EF57FF4F808191810197F1F7FE01EF578C
:1048C000FF4F91838083DE01AD57BF4FFE01ED574F
:1048D000FF4F80819181019711969C938E93FE01E9
:1048E000ED57FF4F808191810097D1F6D2C68E019E
:1048F0000D571F4FFE01EB57FF4F60817181828181
:1049000093810E944900DC01CB01F80191838083EF
:10491000DE01A158BF4FFE01ED57FF4F808191810D
:1049200011969C938E93FE01E158FF4F80819181F7
:104930000197F1F7FE01E158FF4F91838083A9C6EB
:104940000E94552B0E94FA0E0E9425132BE631E09F
:1049500080E060E0A9010E94BE0E81E060E00E945C
:104960007C0E80911402882F90E0FE01E75CFE4FE0
:104970000197918380831AC0FE01E75CFE4F80811E
:104980009181880F991FFC01EC50FE4F808191812D
:104990000E94D70EDE01A75CBE4FFE01E75CFE4F12
:1049A00080819181019711969C938E93FE01E75C23
:1049B000FE4F808191819923FCF6FE01E558FF4F5F
:1049C00080E090E0AAEFB3E480839183A283B38375
:1049D0008E0109581F4FFE01E558FF4F608171811C
:1049E0008281938120E030E04AE753E40E941F0275
:1049F000DC01CB01F80180839183A283B383FE01A4
:104A0000E958FF4F608171818281938120E030E01D
:104A100040E85FE30E947903882344F4FE01EB58E9
:104A2000FF4F81E090E09183808364C0FE01E958EC
:104A3000FF4F608171818281938120E03FEF4FE7DA
:104A400057E40E94190318160CF043C0FE01E55804
:104A5000FF4F608171818281938120E030E040E2EC
:104A600051E40E941F02DC01CB018E010B581F4F45
:104A7000BC01CD010E944900DC01CB01F80191830A
:104A800080831FC0FE01ED58FF4F89E190E09183C4
:104A90008083FE01ED58FF4F808191810197F1F7EE
:104AA000FE01ED58FF4F91838083DE01AB58BF4F6D
:104AB000FE01EB58FF4F80819181019711969C93E5
:104AC0008E93FE01EB58FF4F808191810097D1F6C4
:104AD000E0C58E010B581F4FFE01E958FF4F608162
:104AE0007181828193810E944900DC01CB01F80130
:104AF00091838083DE01AF58BF4FFE01EB58FF4F1B
:104B00008081918111969C938E93FE01EF58FF4F07
:104B1000808191810197F1F7FE01EF58FF4F91835A
:104B20008083B7C50E94FA0E2BE131E080E060E09F
:104B3000A9010E94BE0E2BE231E081E060E0A901F4
:104B40000E94BE0EFE01E359FF4F80E090E0AFEA05
:104B5000B3E480839183A283B3838E0107591F4FEF
:104B6000FE01E359FF4F608171818281938120E0D2
:104B700030E04AE753E40E941F02DC01CB01F80158
:104B800080839183A283B383FE01E759FF4F608145
:104B900071818281938120E030E040E85FE30E94F0
:104BA0007903882344F4FE01E959FF4F81E090E046
:104BB0009183808364C0FE01E759FF4F608171815A
:104BC0008281938120E03FEF4FE757E40E94190371
:104BD00018160CF043C0FE01E359FF4F608171814C
:104BE0008281938120E030E040E251E40E941F0284
:104BF000DC01CB018E0109591F4FBC01CD010E9480
:104C00004900DC01CB01F801918380831FC0FE01C4
:104C1000EB59FF4F89E190E091838083FE01EB59CE
:104C2000FF4F808191810197F1F7FE01EB59FF4F12
:104C300091838083DE01A959BF4FFE01E959FF4FDF
:104C400080819181019711969C938E93FE01E95981
:104C5000FF4F808191810097D1F61BC58E010959C4
:104C60001F4FFE01E759FF4F60817181828193815F
:104C70000E944900DC01CB01F80191838083DE01B1
:104C8000AD59BF4FFE01E959FF4F808191811196C7
:104C90009C938E93FE01ED59FF4F80819181019786
:104CA000F1F7FE01ED59FF4F91838083F2C40E941A
:104CB000FA0E22E531E080E060E0A9010E94BE0E1C
:104CC0002BE731E081E060E0A9010E94BE0E0E9466
:104CD000E108FE01EB5BFE4F8083FE01E15AFF4FCE
:104CE00080E090E0AFEAB3E480839183A283B38352
:104CF0008E01055A1F4FFE01E15AFF4F60817181FD
:104D00008281938120E030E04AE753E40E941F0251
:104D1000DC01CB01F80180839183A283B383FE0180
:104D2000E55AFF4F608171818281938120E030E0FC
:104D300040E85FE30E947903882344F4FE01E75AC8
:104D4000FF4F81E090E09183808364C0FE01E55ACB
:104D5000FF4F608171818281938120E03FEF4FE7B7
:104D600057E40E94190318160CF043C0FE01E15AE3
:104D7000FF4F608171818281938120E030E040E2C9
:104D800051E40E941F02DC01CB018E01075A1F4F24
:104D9000BC01CD010E944900DC01CB01F8019183E7
:104DA00080831FC0FE01E95AFF4F89E190E09183A3
:104DB0008083FE01E95AFF4F808191810197F1F7CD
:104DC000FE01E95AFF4F91838083DE01A75ABF4F4E
:104DD000FE01E75AFF4F80819181019711969C93C4
:104DE0008E93FE01E75AFF4F808191810097D1F6A3
:104DF00028C08E01075A1F4FFE01E55AFF4F608100
:104E00007181828193810E944900DC01CB01F8010C
:104E100091838083DE01AB5ABF4FFE01E75AFF4FFB
:104E20008081918111969C938E93FE01EB5AFF4FE6
:104E3000808191810197F1F7FE01EB5AFF4F918339
:104E40008083FE01EB5BFE4F8081282F30E0C75B43
:104E5000DE4F39832883C954D140C75BDE4F888138
:104E60009981C954D1408230910509F4ECC0C75BE7
:104E7000DE4FE881F981C954D140E330F10509F4EE
:104E8000ABC1C75BDE4F28813981C954D140213085
:104E9000310509F075C20E940E17FE01EA5BFE4F54
:104EA000918380830E94FA0EFE01EA5BFE4F8081AF
:104EB00091810E94702CFE01EA5BFE4F91838083FA
:104EC00025E631E080E060E0A9010E94BE0EFE010F
:104ED000EA5BFE4F808191810E94D70EFE01EF5A5E
:104EE000FF4F80E090E0AAEFB3E480839183A28338
:104EF000B3838E01035B1F4FFE01EF5AFF4F6081AA
:104F000071818281938120E030E04AE753E40E947E
:104F10001F02DC01CB01F80180839183A283B3835C
:104F2000FE01E35BFF4F608171818281938120E00C
:104F300030E040E85FE30E947903882344F4FE01F7
:104F4000E55BFF4F81E090E09183808364C0FE01C8
:104F5000E35BFF4F608171818281938120E03FEFAD
:104F60004FE757E40E94190318160CF043C0FE01E6
:104F7000EF5AFF4F608171818281938120E030E0A0
:104F800040E251E40E941F02DC01CB018E01055B6F
:104F90001F4FBC01CD010E944900DC01CB01F8018B
:104FA000918380831FC0FE01E75BFF4F89E190E0A2
:104FB00091838083FE01E75BFF4F808191810197A0
:104FC000F1F7FE01E75BFF4F91838083DE01A55B74
:104FD000BF4FFE01E55BFF4F8081918101971196E4
:104FE0009C938E93FE01E55BFF4F8081918100973A
:104FF000D1F64FC38E01055B1F4FFE01E35BFF4FF0
:1050000060817181828193810E944900DC01CB0122
:10501000F80191838083DE01A95BBF4FFE01E55B50
:10502000FF4F8081918111969C938E93FE01E95BE5
:10503000FF4F808191810197F1F7FE01E95BFF4FFE
:105040009183808326C30E940E17FE01EA5BFE4F08
:10505000918380830E94FA0EFE01EA5BFE4F8081FD
:1050600091810E94552C24E831E080E060E0A901A4
:105070000E94BE0E8091F301882F90E0FE01E95C52
:10508000FE4F0197918380831AC0FE01E95CFE4FB9
:1050900080819181880F991FFC01ED52FE4F808124
:1050A00091810E94D70EDE01A95CBE4FFE01E95C32
:1050B000FE4F80819181019711969C938E93FE0102
:1050C000E95CFE4F808191819923FCF6FE01ED5B46
:1050D000FF4F80E090E0AAEFB3E480839183A28346
:1050E000B3838E01015C1F4FFE01ED5BFF4F6081BA
:1050F00071818281938120E030E04AE753E40E948D
:105100001F02DC01CB01F80180839183A283B3836A
:10511000FE01FF96608171818281938120E030E001
:1051200040E85FE30E94790388232CF481E090E05B
:105130009EAF8DAF46C0FE01FF9660817181828176
:10514000938120E03FEF4FE757E40E9419031816C0
:1051500064F5FE01ED5BFF4F608171818281938177
:1051600020E030E040E251E40E941F02DC01CB016C
:10517000BC01CD010E944900DC01CB019EAF8DAF87
:105180000FC089E190E09CAF8BAF8BAD9CAD0197D8
:10519000F1F79CAF8BAF8DAD9EAD01979EAF8DAFFC
:1051A0008DAD9EAD009769F774C2FE01FF966081D8
:1051B0007181828193810E944900DC01CB019EAF05
:1051C0008DAF8DAD9EAD9AAF89AF89AD9AAD019788
:1051D000F1F79AAF89AF5DC20E940E17FE01EA5B3C
:1051E000FE4F918380830E94FA0EFE01EA5BFE4F20
:1051F000808191810E943A2C2AE831E080E060E0D1
:10520000A9010E94BE0E8091B201882F90E0FE019C
:10521000EB5CFE4F01979183808338C0FE01EB5C0D
:10522000FE4F80819181880F991FFC01ED54FE4F44
:10523000808191818A30910578F4FE01EB5CFE4F0C
:1052400080819181880F991FFC01ED54FE4F808170
:1052500091810E94D70E0EC0FE01EB5CFE4F808153
:105260009181880F991FFC01ED54FE4F808191813F
:105270000E94640CDE01AB5CBE4FFE01EB5CFE4F96
:1052800080819181019711969C938E93FE01EB5C36
:10529000FE4F8081918199230CF680E090E0AAEF87
:1052A000B3E48DAB9EABAFABB8AF6DA97EA98FA9B0
:1052B00098AD20E030E04AE753E40E941F02DC0191
:1052C000CB0189AB9AABABABBCAB69A97AA98BA973
:1052D0009CA920E030E040E85FE30E947903882346
:1052E0002CF481E090E098AB8FA73FC069A97AA920
:1052F0008BA99CA920E03FEF4FE757E40E941903D8
:1053000018164CF56DA97EA98FA998AD20E030E064
:1053100040E251E40E941F02DC01CB01BC01CD013F
:105320000E944900DC01CB0198AB8FA70FC089E137
:1053300090E09EA78DA78DA59EA50197F1F79EA74A
:105340008DA78FA598A9019798AB8FA78FA598A92E
:10535000009769F79EC169A97AA98BA99CA90E94A7
:105360004900DC01CB0198AB8FA78FA598A99CA71A
:105370008BA78BA59CA50197F1F79CA78BA789C14B
:105380000E94FA0E2BE131E080E060E0A9010E946A
:10539000BE0E2BE231E081E060E0A9010E94BE0E6A
:1053A00080E090E0AFEAB3E48FA398A7A9A7BAA7DB
:1053B0006FA178A589A59AA520E030E04AE753E4DB
:1053C0000E941F02DC01CB018BA39CA3ADA3BEA353
:1053D0006BA17CA18DA19EA120E030E040E85FE3BD
:1053E0000E94790388232CF481E090E09AA389A39A
:1053F0003FC06BA17CA18DA19EA120E03FEF4FE7B4
:1054000057E40E94190318164CF56FA178A589A5D9
:105410009AA520E030E040E251E40E941F02DC0146
:10542000CB01BC01CD010E944900DC01CB019AA354
:1054300089A30FC089E190E098A38F8F8F8D98A1E9
:105440000197F1F798A38F8F89A19AA101979AA349
:1054500089A389A19AA1009769F71BC16BA17CA1BF
:105460008DA19EA10E944900DC01CB019AA389A3D2
:1054700089A19AA19E8F8D8F8D8D9E8D0197F1F7B9
:105480009E8F8D8F06C10E94FA0E2BE131E080E0E5
:1054900060E0A9010E94BE0E2BE231E081E060E0F5
:1054A000A9010E94BE0E80E090E0A8ECB3E4898FD1
:1054B0009A8FAB8FBC8F698D7A8D8B8D9C8D20E000
:1054C00030E04AE753E40E941F02DC01CB018D8BE0
:1054D0009E8BAF8BB88F6D897E898F89988D20E0E8
:1054E00030E040E85FE30E94790388232CF481E0F8
:1054F00090E09C8B8B8B3FC06D897E898F89988DC6
:1055000020E03FEF4FE757E40E94190318164CF5CF
:10551000698D7A8D8B8D9C8D20E030E040E251E4E6
:105520000E941F02DC01CB01BC01CD010E94490099
:10553000DC01CB019C8B8B8B0FC089E190E09A8BB7
:10554000898B89899A890197F1F79A8B898B8B8945
:105550009C8901979C8B8B8B8B899C89009769F721
:1055600014C06D897E898F89988D0E944900DC0165
:10557000CB019C8B8B8B8B899C89988B8F878F859C
:1055800098890197F1F7988B8F870E94FA0E20E98E
:1055900031E080E060E0A9010E94BE0E2DE931E01B
:1055A00081E060E0A9010E94BE0E80E090E0A8ECDE
:1055B000B3E48B879C87AD87BE876B857C858D85A3
:1055C0009E8520E030E04AE753E40E941F02DC01A0
:1055D000CB018F839887A987BA876F817885898562
:1055E0009A8520E030E040E85FE30E947903882359
:1055F0002CF481E090E09E838D833FC06F8178859D
:1056000089859A8520E03FEF4FE757E40E94190310
:1056100018164CF56B857C858D859E8520E030E0E5
:1056200040E251E40E941F02DC01CB01BC01CD012C
:105630000E944900DC01CB019E838D830FC089E16C
:1056400090E09C838B838B819C810197F1F79C83F5
:105650008B838D819E8101979E838D838D819E8119
:10566000009769F714C06F81788589859A850E94B3
:105670004900DC01CB019E838D838D819E819A83BD
:10568000898389819A810197F1F79A8389830E949E
:105690007713CE5ADE4F0FB6F894DEBF0FBECDBFE4
:1056A000CF91DF911F910F9108950F931F93DF9377
:1056B000CF93CDB7DEB72E970FB6F894DEBF0FBEEF
:1056C000CDBF0E94FA0E25EA31E080E060E0A9013A
:1056D0000E94BE0E1092B201B0C08091B201082F9C
:1056E00010E00E94E108282F30E0C801880F991FC0
:1056F000FC01ED54FE4F3183208380E090E0AFEA5F
:10570000B3E48B879C87AD87BE876B857C858D8551
:105710009E8520E030E04AE753E40E941F02DC014E
:10572000CB018F839887A987BA876F817885898510
:105730009A8520E030E040E85FE30E947903882307
:105740002CF481E090E09E838D833FC06F8178854B
:1057500089859A8520E03FEF4FE757E40E941903BF
:1057600018164CF56B857C858D859E8520E030E094
:1057700040E251E40E941F02DC01CB01BC01CD01DB
:105780000E944900DC01CB019E838D830FC089E11B
:1057900090E09C838B838B819C810197F1F79C83A4
:1057A0008B838D819E8101979E838D838D819E81C8
:1057B000009769F714C06F81788589859A850E9462
:1057C0004900DC01CB019E838D838D819E819A836C
:1057D000898389819A810197F1F79A8389838091DE
:1057E000B201882F90E0880F991FFC01ED54FE4F05
:1057F000808191818A30910570F48091B201882F67
:1058000090E0880F991FFC01ED54FE4F808191813B
:105810000E94D70E0DC08091B201882F90E0880FB2
:10582000991FFC01ED54FE4F808191810E94640C10
:105830008091B2018F5F8093B2010E94E1088D33A5
:1058400009F04BCF8091B201882F90E0880F991F0B
:10585000FC01ED54FE4F8DE390E0918380832E9602
:105860000FB6F894DEBF0FBECDBFCF91DF911F9171
:105870000F910895DF93CF9300D000D0CDB7DEB75E
:105880009C838B831A8219828B819C810E94702C4D
:105890009A83898389819A810E944A100F900F9080
:1058A0000F900F90CF91DF910895DF93CF9300D0A9
:1058B00000D0CDB7DEB79C838B831A8219828B818F
:1058C0009C810E94702C9A83898389819A810E948D
:1058D00006110F900F900F900F90CF91DF910895C8
:1058E000DF93CF93CDB7DEB728970FB6F894DEBF1E
:1058F0000FBECDBF98878F831E821D8281E090E00E
:105900009C838B832FC08F8198852AE030E0B9017A
:105910000E94E02C9A83898329813A818B819C8122
:10592000A901489F9001499F300D589F300D1124C7
:105930008D819E81820F931F9E838D838B819C819D
:10594000880F991F880F991F880F991F9C838B833D
:105950008F8198852AE030E0B9010E94E02CCB01CC
:1059600098878F838F819885009769F68D819E81B6
:1059700028960FB6F894DEBF0FBECDBFCF91DF9152
:105980000895629FD001739FF001829FE00DF11D89
:10599000649FE00DF11D929FF00D839FF00D749FA9
:1059A000F00D659FF00D9927729FB00DE11DF91F55
:1059B000639FB00DE11DF91FBD01CF0111240895B2
:1059C000AA1BBB1B51E107C0AA1FBB1FA617B70725
:1059D00010F0A61BB70B881F991F5A95A9F7809541
:1059E0009095BC01CD0108952F923F924F925F9206
:1059F0006F927F928F929F92AF92BF92CF92DF92DF
:105A0000EF92FF920F931F93CF93DF93CDB7DEB743
:105A1000CA1BDB0B0FB6F894DEBF0FBECDBF0994D7
:105A20002A88398848885F846E847D848C849B842E
:105A3000AA84B984C884DF80EE80FD800C811B813C
:105A4000AA81B981CE0FD11D0FB6F894DEBF0FBE6B
:105A5000CDBFED010895FB019F01E8944230C4F0F1
:105A60004532B4F44A3029F497FB1EF490958195A1
:105A70009F4F642F77270E94E02C805D8A330CF0C3
:105A8000895D8193CB010097A1F716F45DE25193F4
:105A90001082C9010C944C2DDC01FC01672F71911F
:105AA0007723E1F7329704C07C916D937083629104
:0C5AB000AE17BF07C8F30895F894FFCFAD
:105ABC00312D646563207368696674204C2D520027
:105ACC00322D426173652063616C632E00312D733E
